:0E00F200010080BB000080BB00000000000089
:03100700011801CC
:100F0A007F020F74029000F29390E740F00F74038F
:100F1A009000F29390E741F0EF9000F29390E7424D
:0F0F2A00F0E4A3F090E68AF090E68B7404F0D325
:010F39002295
:010CFE00D322
:010CFF0022D2
:0A10D50000010202030304040505F4
:1009A800E4F562F561F560F55FC203C200C202C2F8
:1009B80001120B157E017F008E0A8F0B75120175CF
:1009C800131275080175091C75100275114C7516FE
:1009D8000375176A7514007515F2EE54C07003029A
:1009E8000AAF7563007564808E658F66C374B29FA5
:1009F800FF74049ECF2402CF3400FEE48F5E8E5D28
:100A0800F55CF55BF55AF559F558F557AF5EAE5DEF
:100A1800AD5CAC5BAB5AAA59A958A857C3120924B4
:100A28005033E566255AF582E5653559F583E0FFCB
:100A3800E564255AF582E5633559F583EFF0E55A03
:100A48002401F55AE43559F559E43558F558E43593
:100A580057F55780B785630A85640B74002480FFB7
:100A6800740134FFFEC3E5139FF513E5129EF512DA
:100A7800C3E50D9FF50DE50C9EF50CC3E50F9FF53D
:100A88000FE50E9EF50EC3E5099FF509E5089EF5ED
:100A980008C3E5119FF511E5109EF510C3E5179FF2
:100AA800F517E5169EF516D2E843D82090E668E0DB
:100AB8004409F090E65CE0443FF0D2AF90E680E075
:100AC80020E105D207120F3A90E680E054F7F05380
:100AD8008EF8C203120BDF3001051204B4C20130D4
:100AE80003F21210F050EDC203120FC0200016904E
:100AF800E682E030E704E020E1EF90E682E030E6CD
:0D0B080004E020E0E4120F691210F280C733
:0B0CEF0090E50DE030E402C322D322A8
:1004B40090E6B8E020E50302056090E6B57401F02B
:1004C40090E6B9E024FE602804600302055990E632
:1004D400BBE014701990E6BAE06002807890E6B848
:1004E400E030E705120F0A8073120CFE806E8065FF
:1004F40090E6BBE014705C90E6BAE060028056902F
:10050400E6B8E030E74BE490E6B5F090E6BFE07F74
:1005140000FE90E6BEE02FFFE43EFED3EF940EEE25
:1005240064809480400DE490E68AF090E68B740E2B
:10053400F0801090E6BFE090E68AF090E6BEE0908E
:10054400E68BF0E51490E6B3F0E51590E6B4F080A0
:100554000B8002800090E6A0E04401F090E6B8E051
:10056400546060030207A090E6B504F090E6B9E099
:10057400700302062F1470030206AC24FE700302FB
:10058400072F24FB700302062914700302062314A8
:10059400700302061714700302061D24056003028B
:1005A40007941210F440030207A090E6BBE024FE77
:1005B400602714603824FD601114602724067050ED
:1005C400E50A90E6B3F0E50B803C120CEF503EE5F3
:1005D4001290E6B3F0E513802DE50C90E6B3F0E558
:1005E4000D8023E50E90E6B3F0E50F801990E6BA8E
:1005F400E0FF120F95AA06A9077B01EA494B600D9B
:10060400EE90E6B3F0EF90E6B4F00207A002078F95
:1006140002078F1210230207A01210AF0207A012C4
:1006240010E80207A01210C30207A01210F640033C
:100634000207A090E6B8E0247F6015146019240234
:100644007063A200E43325E0FFA202E4334F80414B
:10065400E490E740F0803F90E6BCE0547EFF7E00EB
:10066400E0D394807C0040047D0180027D00EC4E48
:10067400FEED4F24D5F58274103EF583E493FF33E9
:1006840095E0FEEF24A1FFEE34E68F82F583E0547B
:100694000190E740F0E4A3F090E68AF090E68B74D2
:1006A40002F00207A002078F1210F840030207A00D
:1006B40090E6B8E024FE6016240260030207A090CE
:1006C400E6BAE0B40105C2000207A002078F90E673
:1006D400BAE0705590E6BCE0547EFF7E00E0D3940F
:1006E400807C0040047D0180027D00EC4EFEED4FD5
:1006F40024D5F58274103EF583E493FF3395E0FE30
:10070400EF24A1FFEE34E68F82F583E054FEF090EF
:10071400E6BCE05480131313541FFFE0540F2F90D2
:10072400E683F0E04420F0807380601210FA506C8D
:1007340090E6B8E024FE601A2402704F90E6BAE016
:10074400B40104D200805590E6BAE0B40202804CB1
:10075400803990E6BCE0547EFF7E00E0D394807C38
:100764000040047D0180027D00EC4EFEED4F24D557
:10077400F58274103EF583E493FF3395E0FEEF2495
:10078400A1FFEE34E68F82F583800D90E6A0800809
:100794001210FC500790E6A0E04401F090E6A0E0BF
:0307A4004480F09E
:0107A700222F
:03003300020CFAC2
:040CFA0053D8EF32AA
:030003000210DF09
:0910DF005388FD438002D2063261
:03004300020D00AB
:100D000002103D00020FE50002106D0002105500B8
:100D1000020E8A00020ECD000210FE000210FF003B
:100D20000211000002110100021102000211030071
:100D30000210830002110400021105000210990044
:100D4000021106000210FF00021107000211080044
:100D50000211090002110A0002110B0002110C001D
:100D600002110D000210FF000210FF000210FF0030
:100D700002110E0002110F000211100002111100E9
:100D800002111200021113000211140002111500C9
:100D900002111600021117000211180002111900A9
:100DA00002111A0002111B0002111C0002111D0089
:080DB00002111E0002111F00D8
:100F690090E682E030E004E020E60B90E682E03093
:100F7900E119E030E71590E680E04401F07F147E46
:0C0F890000120E4490E680E054FEF022BE
:100F3A0030070990E680E0440AF0800790E680E0F6
:100F4A004408F07FDC7E05120E4490E65D74FFF0E3
:0F0F5A0090E65FF05391EF90E680E054F7F022BD
:020F9500A907AA
:100F9700AE16AF178F828E83A3E064037017AD017F
:100FA70019ED7001228F828E83E07C002FFDEC3ECD
:080FB700FEAF0580DFE4FEFF40
:010FBF00220F
:100FC00090E682E044C0F090E681F04387010000A3
:040FD00000000022FB
:100E44008E678F6890E600E054187012E5682401FC
:100E5400FFE43567C313F567EF13F568801590E673
:100E640000E05418FFBF100BE56825E0F568E5675E
:100E740033F567E5681568AE67700215674E60055F
:060E8400120FD480EE22E3
:100FD4007400F58690FDA57C05A3E582458370F930
:010FE40022EA
:10100A001042000002030301020303030303020266
:08101A00030101340401270168
:100B150090E6007410F000000090E601E0444BF010
:100B250000000090E60B7403F000000090E682E000
:100B350054FDF090E61074A0F090E611F00000006E
:100B450090E6127492F000000090E61374A0F00095
:100B5500000090E61474D2F000000090E61574D001
:100B6500F000000090E6917480F0000000F00000B5
:100B75000090E695F0000000F000000043AF010092
:100B8500000090E6187411F0000000E490E6A3F070
:100B950000000090E6197411F0000000E490E6A44E
:100BA500F000000090E61A04F0000000E490E61B57
:100BB500F000000090E64204F0F539753A20753BE7
:100BC500007540007541FF90E670F043880143B21F
:090BD5008AE4F58043A801D2AFC7
:010BDE0022F4
:100BDF0090E6A2E020E172E4F56775700075710090
:100BEF0075726A7B007A007939120080EE4F24FF0C
:100BFF009207300742AF67056774C02FF582E43460
:100C0F00E7F583740FF0AF67056774C02FF582E4C3
:100C1F0034E7F583E56AF0AF67056774C02FF58297
:100C2F00E434E7F583E4F0AF67056774C02FF5820E
:100C3F00E434E7F583E4F0300707E567C3944040F9
:100C4F0099E567600490E68FF0300648E4F568AFE9
:100C5F0068056874002FF582E434FCF583E0F56CC9
:100C6F00E4F567E567C3956C501FAF6805687400BE
:100C7F002FF582E434FCF583E0F5697B007A007987
:100C8F0039FD120CA4056780DA90E6487488F0C22B
:040C9F00065380FD7B
:010CA300222E
:0210F000D32209
:0210F200D32207
:100CA4008B6D8A6E896F900005120834FFAEF012C6
:100CB40009358F828E83ED1207E7AB6DAA6EA96F9B
:100CC400900005E475F0011208B8E92405F9E43A46
:100CD400FA120809FFE48FF0120905AB6DAA6EA998
:0B0CE4006F90000774FFF5F00208B8E5
:060080008B6D8A6E896F92
:10008600E4F573F574900005120834FFAEF09000A5
:10009600031208346F7003E5F06E604B900003E4C2
:1000A60075F00112086CAFF0FE1209358F828E834F
:1000B6001207A8AB70AA71A9721207D5AB6DE56FCE
:1000C6002403F9E4356EFA120809FFE48FF01209E9
:1000D60005757300757401AB6DAA6EA96F90000764
:0B00E600E475F0011208B8AE73AF74AF
:0100F10022EC
:0210F400D32205
:0810E80090E6BAE0F552D322B4
:1010C30090E740E552F0E490E68AF090E68B04F076
:0210D300D32226
:1010AF0090E6BCE05403FF90E6BAE0FE74212FF8FF
:0310BF00A606D3AF
:0110C200220B
:1010230090E6BCE054032421F8E690E740F0E49016
:09103300E68AF090E68B04F0D38C
:01103C002291
:0210F600D32203
:0210F800D32201
:0210FA00D322FF
:0210FC00D322FD
:10103D00C0E0C083C082D2015391EF90E65D740190
:08104D00F0D082D083D0E03224
:10106D00C0E0C083C0825391EF90E65D7404F0D070
:06107D0082D083D0E032B6
:100FE500C0E0C083C08263800863800863800863B3
:100FF50080085391EF90E65D7402F0D082D083D0E3
:02100500E032D7
:100E8A00C0E0C083C08290E680E030E71475270195
:100E9A0085080C85090D85100E85110F4380808009
:100EAA001275270085100C85110D85080E85090F0E
:100EBA0053807F5391EF90E65D7410F0D082D08317
:030ECA00D0E03243
:10105500C0E0C083C082D2035391EF90E65D74086F
:08106500F0D082D083D0E0320C
:100ECD00C0E0C083C08290E680E030E71185080C59
:100EDD0085090D85100E85110F438080800F8510BB
:100EED000C85110D85080E85090F53807F5391EFE9
:0D0EFD0090E65D7420F0D082D083D0E0320A
:0110FE0032BF
:0110FF0032BE
:0111000032BC
:0111010032BB
:0111020032BA
:0111030032B9
:10108300C0E0C083C0825391EF90E65F7410F0D04C
:0610930082D083D0E032A0
:0111040032B8
:0111050032B7
:10109900C0E0C083C0825391EF90E65F7480F0D0C6
:0610A90082D083D0E0328A
:0111060032B6
:0111070032B5
:0111080032B4
:0111090032B3
:01110A0032B2
:01110B0032B1
:01110C0032B0
:01110D0032AF
:01110E0032AE
:01110F0032AD
:0111100032AC
:0111110032AB
:0111120032AA
:0111130032A9
:0111140032A8
:0111150032A7
:0111160032A6
:0111170032A5
:0111180032A4
:0111190032A3
:01111A0032A2
:01111B0032A1
:01111C0032A0
:01111D00329F
:01111E00329E
:01111F00329D
:1001000012010002EF020140662403800000010298
:1001100000020A060002EF020140010009022F015D
:10012000050100C001080B000301002008090400BC
:100130000000010120030924010002084B0000080F
:10014000240A2801010004112402020101002802EE
:1001500003000000000000050C240314010300024A
:10016000280000051124020101060028040F0000E8
:1001700000000000060C2403160101000128000005
:100180000609040100000102200509040101010122
:1001900002200510240102000101000000020300FA
:1001A000000000062402010318070502052A0001C9
:1001B00008250100000000000904020000010220DF
:1001C00006090402010101022006102401160001A3
:1001D00001000000040F00000000062402010318C3
:1001E00007058625540001082501000000000009CC
:1001F00004030000010100080924010001090001B5
:10020000040904040002010300070724010001415E
:10021000000624020101090624020202090924033E
:1002200001030102010A09240302040101010A0970
:1002300005040200020000000525010101090581F5
:100240000200020000000525010103AA09021D01A8
:10025000050100C001080B00030100200009040093
:100260000000010120030924010002084B000008DE
:10027000240A2801010004112402020101002802BD
:1002800003000000000000050C2403140103000219
:1002900028000005112402010106002803070000C0
:1002A00000000000060C24031601010001280000D4
:1002B00006090401000001022005090401010101F1
:1002C00002200510240102000101000000020300C9
:1002D0000000000624020103180705020530010191
:1002E00008250100000000000904020000010220AE
:1002F0000609040201010102200610240116000172
:10030000010000000307000000000624020103189A
:1003100007058625300103082501000000000009BB
:10032000040300020103000007240100014100064C
:10033000240201010906240202020909240301031F
:100340000102010A09240302040101010A0905044A
:10035000024000000000052501010109058102405D
:10036000000000000525010103AA040309042C0371
:100370004600720061006300740061006C002000A0
:1003800041007500640069006F002000530079008F
:100390007300740065006D00730014034100580081
:1003A00045002D0046005800200049004900140374
:1003B0004100580045002D0046005800200049002B
:1003C00049000E0344006500760043006C006B009A
:1003D00028034100580045002D0046005800200029
:1003E00049004900200041007500640069006F0069
:1003F00020004F007500740026034100580045009E
:100400002D0046005800200049004900200041000E
:100410007500640069006F00200049006E001E0333
:100420004100580045002D004600580020004900BA
:10043000490020004D004900440049002C034100C0
:10044000580045002D004600580020004900490092
:10045000200041007500640069006F002000490021
:100460006E007400660063002403410058004500DC
:0D0470002D004600580020004900490020E2
:10047D00004D00490044004900200049006E00264F
:10048D00034100580045002D00460058002000494A
:10049D0000490020004D0049004400490020004F54
:0704AD00007500740000005F
:03000000020DB836
:0C0DB800787FE4F6D8FD758174020DFF11
:1007A800BB010CE58229F582E5833AF583E0225006
:1007B80006E92582F8E622BBFE06E92582F8E22250
:0D07C800E58229F582E5833AF583E493226A
:1007D500BB010689828A83F0225002F722BBFE0103
:0207E500F322FD
:1007E700F8BB010DE58229F582E5833AF583E8F048
:1007F700225006E92582C8F622BBFE05E92582C8F4
:02080700F222DB
:10080900BB010A89828A83E0F5F0A3E022500687BA
:10081900F009E71922BBFE07E3F5F009E31922897C
:0B082900828A83E493F5F074019322AF
:10083400BB0110E58229F582E5833AF583E0F5F002
:10084400A3E0225009E92582F886F008E622BBFEDF
:100854000AE92582F8E2F5F008E222E5832AF58325
:08086400E993F5F0A3E99322EA
:10086C00BB010FF8E58229F582E5833AF583E802AE
:10087C00096B5011C58229F808C5F026C6F5F01889
:10088C00C58236C622BBFE15C58229F808E2C5F022
:10089C0025F0F218E2C5823582F2E58222E5832A40
:0C08AC00F583E993F5F0A3E993C5F02271
:1008B800BB010DC58229C582C5833AC58302095586
:1008C8005011C58229F808E5F026F618F5F0E582FA
:1008D80036F622BBFE11C58229F808E225F0F5F0AC
:1008E800F218E23582F222F8E58229F582E5832AB8
:0D08F800F58374019325F0F5F0E4933822A8
:10090500BB010A89828A83F0E5F0A3F0225006F73D
:0F09150009A7F01922BBFE06F3E5F009F319223A
:10092400EB9FF5F0EA9E42F0E99D42F0E89C45F029
:0109340022A0
:10093500BB010789828A8302098A5005E9F8020901
:1009450081BBFE05E9F802099389828A8302099C25
:100DC4000209A8E493A3F8E493A34003F68001F294
:100DD40008DFF48029E493A3F85407240CC8C33330
:100DE400C4540F4420C8834004F456800146F6DFFF
:100DF400E4800B0102040810204080901007E47E78
:100E0400019360BCA3FF543F30E509541FFEE493F3
:100E1400A360010ECF54C025E060A840B8E493A3BA
:100E2400FAE493A3F8E493A3C8C582C8CAC583CAE5
:100E3400F0A3C8C582C8CAC583CADFE9DEE780BE9D
:0110220000CD
:10095500C5F0F8A3E028F0C5F0F8E582158270022D
:060965001583E038F022CA
:10096B00A3F8E0C5F025F0F0E5821582700215833F
:06097B00E0C838F0E8229C
:09098100E6FB08E6FA08E6F9229B
:09098A00E0FBA3E0FAA3E0F9226E
:09099300E2FB08E2FA08E2F92295
:0C099C00E493FB740193FA740293F922B7
:00000001FF
